:100000000C9434000C9451000C9451000C94510049
:100010000C9451000C9451000C9451000C9451001C
:100020000C9451000C9451000C9451000C9451000C
:100030000C9451000C9453000C9451000C945100FA
:100040000C9451000C9451000C9405020C94330252
:100050000C9451000C9468000C9451000C945100C5
:100060000C9451000C94510011241FBECFEFD8E026
:10007000DEBFCDBF11E0A0E0B1E0ECE3F8E002C0EC
:1000800005900D92AC34B107D9F721E0ACE4B1E0B2
:1000900001C01D92A139B207E1F70E9448030C94F8
:1000A0001C040C9400001F920F920FB60F921124A3
:1000B0008F93EF93FF93EAE7F0E080818064808381
:1000C000FF91EF918F910F900FBE0F901F90189599
:1000D0001F920F920FB60F9211240F931F932F931D
:1000E0003F934F935F936F937F938F939F93AF93C0
:1000F000BF93EF93FF93CF93DF9300D000D0CDB7A2
:10010000DEB78091000190910101A0910201B091B0
:10011000030189839A83AB83BC830091780010919B
:1001200079004AE0BE016F5F7F4FC8010E94E7037C
:1001300060E088E00E948D0188E291E00E94A901C0
:1001400060E088E00E948D01CE0101960E94A90125
:1001500087E191E00E94A902CE0101960E94A902C6
:1001600083E291E00E94A90240E1BE016F5F7F4FF0
:10017000C8010E94E70360E08DE00E948D0189E2E2
:1001800091E00E94A90160E08DE00E948D01CE0106
:1001900001960E94A90161E088E00E948D0186E23B
:1001A00091E00E94A90161E00B30110530F488E074
:1001B0000E948D018DE291E02BC00037110530F4D3
:1001C00088E00E948D0183E391E022C00F3F11057A
:1001D00009F030F488E00E948D0186E391E018C0B8
:1001E0000D3981E0180730F488E00E948D018BE31F
:1001F00091E00EC00539124030F488E00E948D0174
:1002000080E491E005C088E00E948D0187E491E0E0
:100210000E94A9010F900F900F900F90DF91CF9146
:10022000FF91EF91BF91AF919F918F917F916F91CE
:100230005F914F913F912F911F910F910F900FBEA2
:100240000F901F901895299A85E08A95F1F7000084
:1002500029980895CF93C82F662311F0289A01C0DA
:100260002898549A559A569A579A5F985E985D982E
:100270005C98C7FD5F9AC6FD5E9AC5FD5D9AC4FD98
:100280005C9A0E9423015F985E985D985C98C3FD1C
:100290005F9AC2FD5E9AC1FD5D9AC0FD5C9A0E94A4
:1002A00023015C9A5D9A5E9A5F9A87EB9BE00197C7
:1002B000F1F700C00000CF91089528985D9A5498F6
:1002C000559856985798299A85E08A95F1F7000035
:1002D0004C9B02C080E101C080E04D9980624E9944
:1002E00080644F998068299895E09A95F1F700000D
:1002F000299A95E09A95F1F700004C9981604D9903
:1003000082604E9984604F9988602998089560E0D2
:100310000C942A0161E00C942A01611102C08058FA
:1003200001C080540C9487010E945D0187FDFCCFC1
:1003300085E18A95F1F700000E945D0190E0089543
:1003400081E00C94870182E00C94870161E00C94B9
:100350002A01CF93DF93EC018991882319F00E9441
:10036000A601FACFDF91CF910895CF93DF93FC01DF
:100370008491EF012196882321F00E94A601FE01BD
:10038000F7CFDF91CF910895CF93C82F209A559A38
:10039000219A549A559A569A579A8FEF99EF019746
:1003A000F1F700C000005D9A5C9A0E9423018FE182
:1003B0009EE40197F1F700C000000E9423018FEF37
:1003C00090E00197F1F700C000000E9423018FEF39
:1003D00090E00197F1F700C000005C980E942301B3
:1003E0008FEF90E00197F1F700C0000088E20E94D3
:1003F000870188E00E9487010E94A00186E00E9498
:1004000087018C2FCF910C9487011F920F920FB60A
:100410000F9211242F938F939F93EF93FF938091CB
:10042000C0009091C6008C71E0914E01EF5FEF71BA
:1004300020914D01E21739F0E0934E01F0E0EF5AC0
:10044000FE4F908301C082E090914C01892B8093F4
:100450004C01FF91EF919F918F912F910F900FBEC3
:100460000F901F9018951F920F920FB60F921124A4
:100470008F939F93EF93FF939091500180914F0141
:10048000981769F0E0914F01EF5FEF71E0934F0132
:10049000F0E0EF58FE4F80818093C60005C0809148
:1004A000C1008F7D8093C100FF91EF919F918F914B
:1004B0000F900FBE0F901F90189510925001109240
:1004C0004F0110924E0110924D0197FF03C022E0A0
:1004D0002093C00090789093C5008093C40088E971
:1004E0008093C10086E08093C200089590914E01F0
:1004F00080914D019817A9F090914D019F5F9F71D8
:10050000E92FF0E0EF5AFE4F208180914C0190934B
:100510004D0110924C0190E0982F8827820F911D79
:10052000089580E091E00895909150019F5F9F7140
:1005300020914F019217E1F3E92FF0E0EF58FE4FC1
:100540008083909350018091C10080628093C100AC
:100550000895CF93DF93EC018991882319F00E94CD
:100560009402FACFDF91CF910895CF93DF93FC01EE
:100570008491EF012196882321F00E949402FE01CC
:10058000F7CFDF91CF910895FC01408121E030E069
:1005900001C0220F6A95EAF7242B20830895FC01FD
:1005A000808121E030E001C0220F6A95EAF72095B2
:1005B0008223808380818181282321830895FC0107
:1005C000808121E030E001C0220F6A95EAF7922F86
:1005D00090958923808380818181282B21830895B0
:1005E000FC01908121E030E001C0220F6A95EAF71A
:1005F0002095292320830895FC01408121E030E0EB
:1006000001C0220F6A95EAF7242B20830895FC018C
:10061000408121E030E001C0220F6A95EAF72427EB
:1006200020830895FC01808190E002C09595879514
:100630006A95E2F762E070E00E94BF03089580933C
:100640007C0080917C00806480937C0080917C00A1
:100650008F7D80937C0080917A00876080937A0000
:1006600080917A00806880937A0080917A0080641B
:1006700080937A0080917A0086FDFCCF20917800EB
:100680008091790090E0982F8827820F911D08951E
:100690008CE00E94C40160E081E00E948D0185E051
:1006A00091E00E94A90161E083E00E948D018CE04D
:1006B00091E00E94A90160E088E00E948D0181E143
:1006C00091E00E94A90160E08DE00E948D0183E12C
:1006D00091E00E94A90161E088E00E948D0185E11E
:1006E00091E00E94A90180917C00806480937C004D
:1006F00080917C008F7780937C0080917C00877F45
:1007000080937C0080917C008B7F80937C00809123
:100710007C008D7F80937C0080917C008D7F809316
:100720007C0080917A00806880937A0080917A00C2
:10073000886080937A0080917A00816080937A004B
:1007400080917A00826080937A0080917A00846040
:1007500080937A00809181008B7F809381008091CB
:10076000810083608093810080916F00816080931D
:100770006F0087E690E00E945D027894FFCF97FBC0
:10078000072E16F4009407D077FD09D00E94D303FA
:1007900007FC05D03EF4909581959F4F0895709584
:1007A00061957F4F0895AA1BBB1B51E107C0AA1F8B
:1007B000BB1FA617B70710F0A61BB70B881F991F02
:1007C0005A95A9F780959095BC01CD010895BB2756
:1007D0004A3031F4992322F4BDE2909581959F4FE0
:1007E0000C94F303BB27FB015527AA27880F991FF9
:1007F000AA1FA41710F0A41B83955051B9F7A05D50
:10080000AA3308F0A95DA193009779F7B111B193CC
:100810001192CB010C940C04DC01FC01672F719147
:100820007723E1F7329704C07C916D9370836291D6
:0C083000AE17BF07C8F30895F894FFCF7F
:10083C00303030300076616C75653A006B65793A12
:10084C00006100620063004144432076616C756571
:10085C003A20000D0A002020202020200052696739
:10086C00687400557000446F776E004C65667400B8
:0C087C0053656C656374004E6F6E650080
:00000001FF
