:100000000C9434000C9451000C9451000C94510049
:100010000C9451000C9451000C9451000C9451001C
:100020000C9451000C9451000C9451000C9451000C
:100030000C9451000C9488000C9451000C945100C5
:100040000C9453000C9451000C9451000C945100EA
:100050000C9451000C9451000C9451000C945100DC
:100060000C9451000C94510011241FBECFEFD8E026
:10007000DEBFCDBF11E0A0E0B1E0E0EEF3E002C0F2
:1000800005900D92AE30B107D9F721E0AEE0B1E0B6
:1000900001C01D92A131B207E1F70E94A8010C94A2
:1000A000EE010C9400001F920F920FB60F921124D4
:1000B0002F933F934F935F936F937F938F939F9370
:1000C000AF93BF93EF93FF93809110018F5F8230C6
:1000D00018F48093100102C0109210016091100179
:1000E000E62FF0E0E25FFE4F80810E943B01FF912E
:1000F000EF91BF91AF919F918F917F916F915F91A0
:100100004F913F912F910F900FBE0F901F90189518
:100110001F920F920FB60F9211248F9380910E01B0
:100120008F5F8A3018F480930E010CC010920E017C
:1001300080910F018F5F863018F480930F0102C009
:1001400010920F018F910F900FBE0F901F90189576
:10015000FC01408121E030E001C0220F6A95EAF7FE
:10016000242B20830895FC01808121E030E001C030
:10017000220F6A95EAF7209582238083808181810E
:10018000282321830895FC01808121E030E001C013
:10019000220F6A95EAF7922F9095892380838081B8
:1001A0008181282B21830895FC01908121E030E09A
:1001B00001C0220F6A95EAF720952923208308952C
:1001C000FC01408121E030E001C0220F6A95EAF78E
:1001D000242B20830895FC01408121E030E001C000
:1001E000220F6A95EAF7242720830895FC01808175
:1001F00090E002C0959587956A95E2F762E070E01D
:100200000E94C601089580937C0080917C008064E8
:1002100080937C0080917C008F7D80937C00809116
:100220007A00876080937A0080917A00806880935A
:100230007A0080917A00806480937A0080917A00BD
:1002400086FDFCCF209178008091790090E0982F76
:100250008827820F911D089564E08AE290E00E9451
:10026000A80067E08AE290E00E94A80060E084E2D3
:1002700090E00C94A8001F93CF93DF93E82FF0E059
:10028000EC5FFE4F1081E62FF0E0E050FF4FD08191
:1002900064E08BE290E00E94D40067E08BE290E0A3
:1002A0000E94D40060E085E290E00E94D40085E0E6
:1002B0008A95F1F70000C8E060E085E290E010FF69
:1002C00003C00E94E00002C00E94D40085E08A952D
:1002D000F1F7000067E08BE290E00E94E00085E02B
:1002E0008A95F1F7000067E08BE290E00E94D4006D
:1002F0001695C15009F7C8E060E085E290E0D0FFB4
:1003000003C00E94E00002C00E94D40085E08A95EC
:10031000F1F7000067E08BE290E00E94E00085E0EA
:100320008A95F1F7000067E08BE290E00E94D4002C
:10033000D695C15009F764E08BE290E00E94E0009E
:1003400085E08A95F1F70000DF91CF911F91089524
:100350000E942C01809181008C7F8093810080918C
:10036000810084608093810080916F008160809320
:100370006F0085B58B7F85BD85B5836085BD809118
:100380006E00816080936E007894FFCF97FB072EFC
:1003900016F4009407D077FD09D00E94DA0107FC1B
:1003A00005D03EF4909581959F4F08957095619585
:1003B0007F4F0895AA1BBB1B51E107C0AA1FBB1F9B
:1003C000A617B70710F0A61BB70B881F991F5A95E1
:1003D000A9F780959095BC01CD010895F894FFCFC1
:0E03E00010204080039F250D9949411F0109FF
:00000001FF
