:100000000C944A000C9467000C9467000C946700F1
:100010000C9467000C9467000C9467000C946700C4
:100020000C9467000C9467000C9467000C942B02EE
:100030000C9467000C9467000C9467000C946700A4
:100040000C9467000C9467000C94B0030C94DE03CE
:100050000C9467000C9467000C9467000C94670084
:100060000C9467000C9467005902A802D602FB02A8
:100070004B037203900305A84CCDB2D44EB9383669
:10008000A9020C50B9918688083CA6AAAA2ABE00EB
:100090000000803F11241FBECFEFD8E0DEBFCDBFF0
:1000A00011E0A0E0B1E0E8E7FEE102C005900D92AA
:1000B000AE3CB107D9F722E0AEECB1E001C01D9231
:1000C000A337B207E1F70E942C070C943A0F0C9467
:1000D00000000F931F93CF93DF9300D01F92CDB7F3
:1000E000DEB7182F062F60E085E00E94FC060111A4
:1000F00003C087E191E002C089E591E00E94B0066B
:1001000089E191E00E94B006812F90E019821A8265
:100110001B82FE01319623E04AE08433910528F0EA
:10012000C39730813F5F3083F8CFBC01469FC00149
:10013000479F900D1124215031962111EECF8981D6
:1001400090E00E94C3068DE191E00E94B0068A8192
:1001500090E00E94C3068B8190E00E94C30660E09D
:100160008DE00E94FC068FE191E00F900F900F90C0
:10017000DF91CF911F910F910C94B0061F93CF93F5
:10018000DF93EC01162F61E085E00E94FC06113040
:1001900019F487E191E002C089E591E00E94B00680
:1001A00082E291E00E94B006CE010E94C30661E0A7
:1001B0008DE00E94FC0686E291E0DF91CF911F91D5
:1001C0000C94B006CF93DF93EC010E940C0760E023
:1001D00080E00E94FC06C230D105B1F038F42097CF
:1001E00069F0219759F584E391E013C0C330D1053C
:1001F00071F0249719F583E491E00BC08AE291E055
:10020000DF91CF910C94B00689E391E002C08EE3B8
:1002100091E00E94B0066091D10170E080910401EC
:1002200090E00E9469006091D10170E0809102012C
:1002300090910301DF91CF910C94BE00DF91CF919B
:100240000895CF93DF9300D000D01F92CDB7DEB7D3
:1002500025E0EBE0F1E0DE01119601900D922A9588
:10026000E1F74AE0BE016F5F7F4F0E94EF0ECE01C3
:1002700001960E94540484E891E00E9454040F9077
:100280000F900F900F900F90DF91CF9108950F93E3
:100290001F93CF93DF9300D000D01F92CDB7DEB76E
:1002A0008C0185E0EBE0F1E0DE01119601900D920A
:1002B0008A95E1F788E491E00E9454044AE0BE0187
:1002C0006F5F7F4FF801838194810E94EF0ECE0112
:1002D00001960E9454048FE491E00E945404F801B6
:1002E00081814AE0BE016F5F7F4F90E00E94EF0E78
:1002F000CE0101960E9454048BE591E00E945404C3
:10030000F80182814AE0BE016F5F7F4F90E00E945A
:10031000EF0ECE0101960E94540484E891E00E9401
:10032000540488E691E00E9454040F900F900F90BF
:100330000F900F90DF91CF911F910F9108958F92A1
:100340009F92AF92BF92EF92FF921F93CF93DF9352
:100350007C0187E090E00E94C30DEC01892B09F439
:100360006FC01882B70180E090E00E940F0C4B0133
:100370005C019B01AC0160E070E48CE197E40E94B9
:100380006E0B0E943E05898320E635EE40ED5BE36F
:10039000C501B4010E94C60C20E030E040E051E409
:1003A0000E94C60C0E943E058A83FC82EB828091EB
:1003B0000001909101019E838D832981820F911DFF
:1003C000909301018093000110E069811617C0F538
:1003D00070E080E090E00E940F0C9B01AC016BED9F
:1003E0007FE089EC90E40E946E0B4B015C01E12EF2
:1003F000F12CB7010F2C000C880B990B0E94110CEB
:100400009B01AC01C501B4010E94C60C0E94330DD2
:1004100020E030E040E053E40E94C60C20E030E0F1
:100420004EEF52E40E94FD0A0E943E052D813E815E
:10043000682FC9018E0D9F1D0E942C0F1F5FC5CF15
:10044000CE01DF91CF911F91FF90EF90BF90AF90C1
:100450009F908F9008951F920F920FB60F921124C4
:100460001F932F933F934F935F936F937F938F933C
:100470009F93AF93BF93CF93DF93EF93FF938091BD
:10048000D5019091D60101969093D6018093D50124
:1004900063E08BE290E00E94FD04E091CF01F091D7
:1004A000D001E730F10508F047C1EC5CFF4F0C9438
:1004B000E20AC0914502D09146028091D501909107
:1004C000D601A0E0B0E04F81588569857A8548174C
:1004D00059076A077B0748F41092D6011092D5019C
:1004E0008FE785B985E090E016C1E881F9818081C8
:1004F0008F5F8083E881F98190818181981708F06E
:100500001082EA81FB8180818F5F8083EA81FB8199
:1005100090818181981708F01082F9990DC1E881C6
:10052000F981208185819681820F911D0E94240F7F
:10053000182FEA81FB81208185819681820F911D90
:100540000E94240F90E0810F911D969587958EC093
:100550008091D3019091D40101969093D40180931E
:10056000D3012091480230E08217930720F01092C7
:10057000D4011092D301F999DFC040913E0220913D
:10058000D3013091D401429FC001439F900D1124AB
:1005900053E0969587955A95E1F70E94240F909124
:1005A0000401899FC001112495B9C6C02091D301CF
:1005B0003091D4012F5F3F4F3093D4012093D3016A
:1005C00080914802869590E02817390708F4B4C056
:1005D0001092D4011092D3018091D201882331F07E
:1005E0008091040185B91092D201A6C015B881E0AE
:1005F0008093D201A1C02091D3013091D4012F5F0B
:100600003F4F3093D4012093D301809148028695C7
:1006100090E02817390770F01092D4011092D3019E
:100620008091D201882319F01092D20103C081E099
:100630008093D2019091D2016091D3017091D40145
:100640002091040180914702992391F0829FC0017B
:100650001124869F9001879F300D969F300D1124A5
:10066000C901880F892F881F990B919585B964C09E
:10067000829FC0011124869FA001879F500D969FE5
:10068000500D1124CA01880F892F881F990B91954D
:10069000281B822FEBCF8091D3019091D40101963A
:1006A0009093D4018093D3012091480230E08217C7
:1006B000930720F01092D4011092D3018091470249
:1006C00090910401899FC00111244091D301509160
:1006D000D401849F9001859F300D949F300D11248B
:1006E00035B92AC08091D5019091D601A0E0B0E043
:1006F000E0914502F09146024385548565857685F3
:10070000481759076A077B07B8F41092D601109270
:10071000D50186E090E09093D0018093CF010CC08A
:100720000E945D06009741F0909346028093450237
:100730001092D0011092CF01FF91EF91DF91CF91F4
:10074000BF91AF919F918F917F916F915F914F91E9
:100750003F912F911F910F900FBE0F901F901895F2
:100760001F920F920FB60F9211242F938F939F9386
:10077000EF93FF938091C0009091C6008C71E0913F
:10078000D901EF5FEF712091D801E21739F0E093C2
:10079000D901F0E0E452FE4F908301C082E09091D5
:1007A000D701892B8093D701FF91EF919F918F9172
:1007B0002F910F900FBE0F901F9018951F920F92C0
:1007C0000FB60F9211248F939F93EF93FF93909105
:1007D000DB018091DA01981769F0E091DA01EF5FAF
:1007E000EF71E093DA01F0E0E450FE4F80818093F6
:1007F000C60005C08091C1008F7D8093C100FF912C
:10080000EF919F918F910F900FBE0F901F901895B1
:100810001092DB011092DA011092D9011092D801E6
:1008200097FF03C022E02093C00090789093C5000A
:100830008093C40088E98093C10086E08093C20061
:1008400008959091D9018091D8019817A9F09091BD
:10085000D8019F5F9F71E92FF0E0E452FE4F2081A5
:100860008091D7019093D8011092D70190E0982FF2
:100870008827820F911D089580E091E0089590915E
:10088000DB019F5F9F712091DA019217E1F3E92F5D
:10089000F0E0E450FE4F80839093DB018091C10033
:1008A00080628093C1000895CF93DF93EC0189911A
:1008B000882319F00E943F04FACFDF91CF91089569
:1008C000CF93DF93FC018491EF012196882321F0DF
:1008D0000E943F04FE01F7CFDF91CF91089587B1C9
:1008E0008F7C87B988B1806388B9E9EBF0E08081BB
:1008F0008C7F808388E98093B800089594EA909370
:10090000BC009091BC0097FFFCCF8093BB0084E8B3
:100910008093BC008091BC0087FFFCCF9091B90010
:10092000987F983119F081E0903409F480E00895BF
:100930008093BB0084E88093BC008091BC0087FF5B
:10094000FCCF089584EC8093BC008091BC0087FFAD
:10095000FCCF8091BB00089584E88093BC00809117
:10096000BC0087FFFCCF8091BB00089584E9809391
:10097000BC000895FC01408121E030E001C0220F5D
:100980006A95EAF7242B20830895FC01808121E0F9
:1009900030E001C0220F6A95EAF720958223808318
:1009A00080818181282321830895FC01808121E0B9
:1009B00030E001C0220F6A95EAF7922F90958923C3
:1009C000808380818181282B21830895FC0190817F
:1009D00021E030E001C0220F6A95EAF72095292333
:1009E00020830895FC01408121E030E001C0220F06
:1009F0006A95EAF7242B20830895FC01408121E0C9
:100A000030E001C0220F6A95EAF724272083089579
:100A1000FC01808190E002C0959587956A95E2F788
:100A200062E070E00E94CE0A089580937C0080917D
:100A30007C00806480937C0080917C008F7D80931B
:100A40007C0080917A00876080937A0080917A00A0
:100A5000806880937A0080917A00806480937A0025
:100A600080917A0086FDFCCF2091780080917900FA
:100A700090E0982F8827820F911D0895CF92DF92E2
:100A8000EF92FF92CF936B017C0120E030E0A9014F
:100A90000E94C10C18162CF520E030E04FE753E41B
:100AA000C701B6010E94690B87FF1DC0C701B601CF
:100AB0000E94E00BC62F70E080E090E00E940F0CD7
:100AC0009B01AC01C701B6010E94FC0A20E030E0A6
:100AD00040E05FE30E94690B87FD07C081E08C0F57
:100AE00005C080E003C08FEF01C08C2FCF91FF9035
:100AF000EF90DF90CF900895CF92DF92EF92FF9228
:100B0000CF936B017C0120E030E0A9010E94C10C71
:100B100018164CF520E030E040E854E4C701B60177
:100B20000E94690B87FF22C0C701B6010E94E00B3B
:100B3000C62F70E080E090E00E940F0C9B01AC019A
:100B4000C701B6010E94FC0A20E030E040E05FE30C
:100B50000E94690B6C2F70E087FF02C0CB0108C0B8
:100B6000CB01019605C080E090E002C080E094E0F7
:100B7000CF91FF90EF90DF90CF9008954F925F92CA
:100B80006F927F928F929F92AF92BF92EF92FF925D
:100B90000F931F93CF93DF938C017B01C0E0D0E0D4
:100BA0004C01A12CB12CC017D10789F1C501B401AA
:100BB0000E940F0C9B01AC016BED7FE089EC90E48F
:100BC0000E946E0B2B013C01BE0180E090E00E9470
:100BD0000F0C9B01AC01C301B2010E94C60C0E9424
:100BE000330D20E030E040E053E40E94C60C20E0EA
:100BF00030E04EEF52E40E94FD0A0E943E05682F4D
:100C0000C7018C0F9D1F0E942C0F2196CCCFDF9126
:100C1000CF911F910F91FF90EF90BF90AF909F9059
:100C20008F907F906F905F904F90089510926E021A
:100C300010926D0210926A021092690210926C0278
:100C400010926B020895CF93DF93EC0184E090E063
:100C50000E94C30D009769F1FC01D183C083138208
:100C6000128220916D0230916E022115310579F4C6
:100C700090936A028093690290936C0280936B0256
:100C800081E090E090936E0280936D0213C0E0913A
:100C90006B02F0916C029383828390936C02809339
:100CA0006B022F5F3F4F30936E0220936D0281E005
:100CB00001C080E0DF91CF910895CF93DF938091C1
:100CC0006D0290916E020097B9F0E0916902F09187
:100CD0006A02D081C1812281338130936A022093DC
:100CE0006902019790936E0280936D02CF010E947A
:100CF0005B0E8D2F9C2F02C080E090E0DF91CF91A2
:100D00000895CF93C82F80E40E947E048C2F8061C9
:100D10000E94980487EB9BE00197F1F700C0000068
:100D20008C2F0E9498040E94B60487EB9BE00197E9
:100D3000F1F700C00000CF910895CF93DF93C82F43
:100D4000D62F82958F70862B0E9481068C2F8F70F4
:100D50008D2BDF91CF910C94810660E20C949D065F
:100D60000F931F93CF938C01C0E0F801EC0FF11D9E
:100D70008081882321F00E94AD06CF5FF6CFCF910E
:100D80001F910F910895CF93DF9300D000D01F9251
:100D9000CDB7DEB725E0E1E1F1E0DE01119601908B
:100DA0000D922A95E1F74AE050E0BE016F5F7F4F58
:100DB0000E94E40ECE0101960E94B0060F900F90A3
:100DC0000F900F900F90DF91CF910895CF93C82F80
:100DD0008FE59AEE0197F1F700C000000E946F04C2
:100DE00082E00E94810660E08C2F8860CF910C9495
:100DF0009D0660E00C949D06611102C0806802C0EF
:100E000060E0806C0C949D0660E088E10C949D0687
:100E100060E08CE10C949D0660E081E00C949D06FE
:100E20000F931F93CF93DF938B018F7360E08064E8
:100E30000E949D06E801085F1F4F60E289910E94B1
:100E40009D06C017D107C9F760E080E8DF91CF9118
:100E50001F910F910C949D06CF93DF9300D000D08B
:100E6000CDB7DEB788E090E00E94080487E891E003
:100E70000E94540487E00E94E60688E20E94F90678
:100E800080E090E00E94E20084B18FEF84B985B1E8
:100E90008F6085B9609102017091030180E090E05C
:100EA0000E940F0C9B01AC0160E070E48CE197E4C0
:100EB0000E946E0B0E943E058093480260910201E1
:100EC0007091030180E090E00E940F0C20E635EE67
:100ED00040ED5BE30E94C60C20E030E040E051E4CE
:100EE0000E94C60C0E943E0580933E02609148021B
:100EF00070E080E090E00E94110C9B01AC0160E08A
:100F000070E08FE793E40E946E0B0E943E05809391
:100F1000470289EB92E00E949F0190934A028093DE
:100F2000490282E093E00E949F0190934C028093DB
:100F30004B0284E593E00E949F0190934E028093C0
:100F40004D028DEA93E00E949F019093500280939E
:100F50004F0289EB94E00E949F019093400280939E
:100F60003F0288E395E00E949F01909342028093A4
:100F7000410285EC95E00E949F019093440280938A
:100F8000430229E4622E22E0722E01E512E03AE6E5
:100F9000C32E38E1D32EE12CF12C45E3842E4CE016
:100FA000942EA12CB12C4FE352E05A8349831C822A
:100FB0001B8281E190E00E94C30DFC01D3018D9161
:100FC0009C9191838083A981BA818D919D91BA83EF
:100FD000A9839383828381E38483168215829AE6B0
:100FE000292E98E1392E412C512CC782D086E186DA
:100FF000F28645E35CE060E070E083869486A58637
:10100000B686AB81BC81A00FB11FED93FC93EB8141
:10101000FC813296FC83EB83369759F6F2E06F0E33
:10102000711C0A5F1F4F22E00936120709F0BBCF7F
:10103000E0914902F0914A02F0932E02E0932D02D2
:1010400020913F02309140023093300220932F02D2
:1010500080933102109233021092320220923402B5
:101060003092350240923602509237024093380255
:101070005093390260933A0270933B02F0931D0241
:10108000E0931C0230931F0220931E0280932002E3
:1010900081E090E09093220280932102209223022B
:1010A0003092240240922502509226024093270259
:1010B000509328026093290270932A0280910001C4
:1010C000909101010E9421010E9416068DE292E09A
:1010D0000E942306882321F08FE891E00E945404A7
:1010E0008CE192E00E942306882321F088E991E0B8
:1010F0000E9454040E945D0690934602809345022C
:10110000DC0115962D913C9116973093D0012093D8
:10111000CF01892B21F481EA91E00E94540466E01A
:1011200087E290E00E94BA0466E088E290E00E94C4
:10113000E60463E08AE290E00E94BA0463E08BE296
:1011400090E00E94E60460E087E290E00E94D5040F
:1011500061E087E290E00E94D50462E087E290E0DF
:101160000E94D50463E087E290E00E94D50464E029
:101170008AE290E00E94BA0465E08AE290E00E9470
:10118000BA0466E08AE290E00E94BA0467E08AE26C
:1011900090E00E94BA0464E08BE290E00E94E604D2
:1011A00065E08BE290E00E94E60466E08BE290E06E
:1011B0000E94E60467E08BE290E00E94E6048091E2
:1011C000810088608093810080E991E0909389009C
:1011D0008093880080916F00826080936F0080917F
:1011E0008100897F8093810080918100816080935C
:1011F000810078948091490290914A020E944701AF
:1012000080914B0290914C020E94470180914D02C7
:1012100090914E020E94470180914F02909150029E
:101220000E94470180913F02909140020E94470135
:1012300080914102909142020E94470180914302B5
:10124000909144020E94470101E073E0272E312C67
:10125000EE24E394F12CF4E0CF2ED12CA2E0AA2EC0
:10126000B12CB6E08B2E912C66E088E290E00E94D3
:10127000FD045524539410E01A82198264E0662E0E
:10128000610E662D8BE290E00E94F204F5E3FA9580
:10129000F1F7000086B18F708093CE019FEF980F19
:1012A0009330D0F490E029813A81220F331F498195
:1012B0005A81240F351F0197F901E80FF91FEE0F2E
:1012C000FF1FEF5AFD4F808191810E9423068FEA14
:1012D00091E00E94540459C1843009F0B9C086EBF2
:1012E00091E00E945404111107C09092D0018092A5
:1012F000CF0180E090E008C01130A9F4B092D00195
:10130000A092CF0182E090E00E94E200662D8BE285
:1013100090E00E94E604E981FA813196FA83E9833C
:101320001F5F5394ABCF123039F4D092D001C092EA
:10133000CF0184E090E0E8CF8091D101609102017B
:1013400070910301882309F442C0615071097093C0
:1013500003016093020180E090E00E940F0C9B016A
:10136000AC0160E070E48CE197E40E946E0B0E9497
:101370003E0580934802609102017091030180E074
:1013800090E00E940F0C20E635EE40ED5BE30E94FA
:10139000C60C20E030E040E051E40E94C60C0E9400
:1013A0003E0580933E026091480270E080E090E04C
:1013B0000E94110C9B01AC0160E070E08FE793E4A8
:1013C0000E946E0B0E943E0580934702A1C080914F
:1013D000040181508093040180E090E00E940F0C92
:1013E0009B01AC0160E070E48CE197E40E946E0B1D
:1013F0000E943E05809348026091020170910301B2
:1014000080E090E00E940F0C20E635EE40ED5BE3BB
:101410000E94C60C20E030E040E051E40E94C60C7F
:101420000E943E0580933E026091480270E080E099
:1014300090E00E94110C9B01AC0160E070E08FE72E
:1014400093E40E946E0B0E943E058093470297C072
:10145000853009F09AC082EC91E00E945404111189
:1014600007C0F092D001E092CF0181E090E008C087
:10147000113049F43092D0012092CF0183E090E006
:101480000E94E20082C080910201909103012091AC
:10149000D101123061F4222319F01092D10102C05F
:1014A0000093D1016091D1010E94BE0068C0222347
:1014B000C1F1BC016F5F7F4F709303016093020124
:1014C00080E090E00E940F0C9B01AC0160E070E4B2
:1014D0008CE197E40E946E0B0E943E0580934802C7
:1014E000609102017091030180E090E00E940F0C76
:1014F00020E635EE40ED5BE30E94C60C20E030E0D4
:1015000040E051E40E94C60C0E943E0580933E02DA
:101510006091D10180910201909103010E94BE006F
:1015200034C0209104012F5F20930401BC0180E0AE
:1015300090E00E940F0C9B01AC0160E070E48CE134
:1015400097E40E946E0B0E943E05809348026091D2
:1015500002017091030180E090E00E940F0C20E6F0
:1015600035EE40ED5BE30E94C60C20E030E040E049
:1015700051E40E94C60C0E943E0580933E02609199
:10158000D101809104010E946900662D8BE290E0F8
:101590000E94E60454E05512BECE66CE97FB072E9D
:1015A00016F4009407D077FD09D00E94E80A07FCE2
:1015B00005D03EF4909581959F4F08957095619563
:1015C0007F4F0895EE0FFF1F0590F491E02D0994D1
:1015D000AA1BBB1B51E107C0AA1FBB1FA617B70759
:1015E00010F0A61BB70B881F991F5A95A9F7809575
:1015F0009095BC01CD0108955058BB27AA270E94A1
:10160000140B0C94870C0E94790C38F00E94800C0B
:1016100020F039F49F3F19F426F40C94760C0EF464
:10162000E095E7FB0C94700CE92F0E94980C58F39E
:10163000BA17620773078407950720F079F4A6F5B7
:101640000C94BA0C0EF4E0950B2EBA2FA02D0B01C2
:10165000B90190010C01CA01A0011124FF27591BF7
:1016600099F0593F50F4503E68F11A16F040A22FFD
:10167000232F342F4427585FF3CF4695379527956E
:10168000A795F0405395C9F77EF41F16BA0B620B6D
:10169000730B840BBAF09150A1F0FF0FBB1F661FB4
:1016A000771F881FC2F70EC0BA0F621F731F841FF7
:1016B00048F4879577956795B795F7959E3F08F01D
:1016C000B0CF9395880F08F09927EE0F97958795DF
:1016D00008950E944C0C08F481E008950E94820B4A
:1016E0000C94870C0E94800C58F00E94790C40F0FA
:1016F00029F45F3F29F00C94700C51110C94BB0C31
:101700000C94760C0E94980C68F39923B1F355233E
:1017100091F3951B550BBB27AA2762177307840704
:1017200038F09F5F5F4F220F331F441FAA1FA9F39A
:1017300035D00E2E3AF0E0E832D091505040E69588
:10174000001CCAF72BD0FE2F29D0660F771F881FE9
:10175000BB1F261737074807AB07B0E809F0BB0BDC
:10176000802DBF01FF2793585F4F3AF09E3F5105F0
:1017700078F00C94700C0C94BB0C5F3FE4F3983E33
:10178000D4F3869577956795B795F7959F5FC9F7D9
:10179000880F911D9695879597F90895E1E0660F5A
:1017A000771F881FBB1F621773078407BA0720F0D3
:1017B000621B730B840BBA0BEE1F88F7E09508953C
:1017C0000E94A00C88F09F5798F0B92F9927B75125
:1017D000B0F0E1F0660F771F881F991F1AF0BA95D5
:1017E000C9F714C0B13091F00E94BA0CB1E008956D
:1017F0000C94BA0C672F782F8827B85F39F0B93F5F
:10180000CCF3869577956795B395D9F73EF4909587
:101810008095709561957F4F8F4F9F4F0895E89405
:1018200009C097FB3EF490958095709561957F4F28
:101830008F4F9F4F9923A9F0F92F96E9BB279395D6
:10184000F695879577956795B795F111F8CFFAF4E6
:10185000BB0F11F460FF1BC06F5F7F4F8F4F9F4F17
:1018600016C0882311F096E911C0772321F09EE875
:10187000872F762F05C0662371F096E8862F70E0DB
:1018800060E02AF09A95660F771F881FDAF7880FB5
:101890009695879597F90895990F0008550FAA0B0B
:1018A000E0E8FEEF16161706E807F907C0F0121673
:1018B0001306E407F50798F0621B730B840B950B76
:1018C00039F40A2661F0232B242B252B21F40895CB
:1018D0000A2609F4A140A6958FEF811D811D089568
:1018E00097F99F6780E870E060E008959FEF80ECD3
:1018F000089500240A941616170618060906089576
:1019000000240A9412161306140605060895092EDB
:101910000394000C11F4882352F0BB0F40F4BF2B4A
:1019200011F460FF04C06F5F7F4F8F4F9F4F08958A
:1019300057FD9058440F551F59F05F3F71F0479580
:10194000880F97FB991F61F09F3F79F08795089565
:10195000121613061406551FF2CF4695F1DF08C084
:10196000161617061806991FF1CF869571056105A1
:1019700008940895E894BB2766277727CB0197F949
:1019800008950E944C0C08F48FEF08950E94D90C22
:101990000C94870C0E94790C38F00E94800C20F087
:1019A000952311F00C94700C0C94760C11240C946B
:1019B000BB0C0E94980C70F3959FC1F3950F50E0FB
:1019C000551F629FF001729FBB27F00DB11D639FF1
:1019D000AA27F00DB11DAA1F649F6627B00DA11D97
:1019E000661F829F2227B00DA11D621F739FB00D3D
:1019F000A11D621F839FA00D611D221F749F3327AD
:101A0000A00D611D231F849F600D211D822F762F45
:101A10006A2F11249F5750409AF0F1F088234AF022
:101A2000EE0FFF1FBB1F661F771F881F915050408E
:101A3000A9F79E3F510580F00C94700C0C94BB0CE0
:101A40005F3FE4F3983ED4F3869577956795B79515
:101A5000F795E7959F5FC1F7FE2B880F911D96952F
:101A6000879597F908959F930E943D0D0F9007FC6D
:101A7000EE5F0C94660D0C94760C0E94A00CD8F3CB
:101A8000E894E0E0BB279F57F0F02AED3FE049ECF7
:101A900006C0EE0FBB0F661F771F881F28F0B23AF3
:101AA00062077307840728F0B25A620B730B840B2A
:101AB000E3959A9572F7803830F49A95BB0F661FBC
:101AC000771F881FD2F790480C947C0DEF93E0FFAE
:101AD00007C0A2EA2AED3FE049EC5FEB0E94140B3D
:101AE0000E94870C0F90039401FC9058E6E7F0E009
:101AF0000C94880D9F3F31F0915020F48795779595
:101B00006795B795880F911D9695879597F90895D4
:101B10009F938F937F936F93FF93EF939B01AC0100
:101B20000E94C60CEF91FF910E949C0D2F913F9156
:101B30004F915F910C94C60CDF93CF931F930F933B
:101B4000FF92EF92DF927B018C01689406C0DA2E3F
:101B5000EF010E94D90CFE01E894A59125913591E1
:101B600045915591A6F3EF010E94140BFE019701D8
:101B7000A801DA9469F7DF90EF90FF900F911F9121
:101B8000CF91DF9108950F931F93CF93DF9382300E
:101B9000910510F482E090E0E0917102F091720200
:101BA00020E030E0A0E0B0E0309719F140815181B1
:101BB0000281138148175907C8F08417950769F403
:101BC000109731F012960C93129713961C9327C01E
:101BD000009371021093720222C02115310519F091
:101BE0004217530718F49A01BD01EF01DF01F80114
:101BF000DBCF21153105F9F0281B390B24303105D5
:101C000080F48A819B816115710521F0FB0193832A
:101C1000828304C09093720280937102FE01329617
:101C200044C0FE01E20FF31F8193919322503109CA
:101C3000398328833AC020916F0230917002232BA0
:101C400041F42091070130910801309370022093F4
:101C50006F0220910501309106012115310541F4F3
:101C60002DB73EB74091090150910A01241B350B55
:101C7000E0916F02F0917002E217F307A0F42E1BBF
:101C80003F0B2817390778F0AC014E5F5F4F2417E0
:101C9000350748F04E0F5F1F5093700240936F025C
:101CA0008193919302C0E0E0F0E0CF01DF91CF910A
:101CB0001F910F910895CF93DF93009709F481C08E
:101CC000FC01329713821282A0917102B0917202CC
:101CD000109781F420813181820F931F20916F0230
:101CE000309170022817390751F5F0937002E09394
:101CF0006F0267C0ED0120E030E0CE17DF0740F44F
:101D00004A815B819E0141155105F1F0EA01F5CF51
:101D1000D383C28340815181840F951FC817D9078F
:101D200059F488819981840F951F0296918380834D
:101D30008A819B81938382832115310529F4F09355
:101D40007202E09371023DC0E901FB83EA8349918D
:101D50005991C40FD51FEC17FD0761F48081918163
:101D6000840F951F0296E90199838883828193816C
:101D70009B838A83E0E0F0E012968D919C9113970B
:101D8000009719F0FD01DC01F7CF8D919C9111971F
:101D90009D012E5F3F4F820F931F20916F02309164
:101DA00070022817390769F4309729F410927202EB
:101DB0001092710202C013821282B0937002A0933B
:101DC0006F02DF91CF9108954532510520F44230E2
:101DD00010F00C94EF0EFB011082CB010895BB278D
:101DE0004A3031F4992322F4BDE2909581959F4FBA
:101DF0000C94FB0EBB27FB015527AA27880F991FC0
:101E0000AA1FA41710F0A41B83955051B9F7A05D29
:101E1000AA3308F0A95DA193009779F7B111B193A6
:101E20001192CB010C94140FDC01FC01672F71910E
:101E30007723E1F7329704C07C916D9370836291B0
:101E4000AE17BF07C8F30895F999FECF92BD81BDC3
:101E5000F89A992780B50895262FF999FECF1FBAD1
:101E600092BD81BD20BD0FB6F894FA9AF99A0FBEC3
:081E700001960895F894FFCFDC
:101E7800FF00E803FF0000730220003030303030EC
:101E8800003030303030002A00553D20002E002030
:101E98005600663D200020487A004454464D204DA7
:101EA8004F44450053494E4500535155450054523F
:101EB8004941005341575400667265713A20002029
:101EC800435F706572696F643A200020435F646500
:101ED80076696465723A20002D2D2D2D2D2D2D2D1E
:101EE8002D2D2D2D2D2D2D2D2D2D2D2D2D2D2D2D1A
:101EF8002D2D2D2D0D0A0053544152540D0A006109
:101F080064642062310D0A006164642062320D0A43
:101F180000726574203D3D204E554C4C0D0A00441E
:101F28004154410D0A00434F4C4C554D3A20340D55
:0E1F38000A00434F4C4C554D3A20350D0A001F
:00000001FF
