:100000000C944A000C9467000C9467000C946700F1
:100010000C9467000C9467000C9467000C946700C4
:100020000C9467000C9467000C9467000C946900B2
:100030000C9467000C9467000C9467000C946700A4
:100040000C9467000C9467000C9471020C949F024E
:100050000C9467000C9467000C9467000C94670084
:100060000C9467000C9467009200D60004012C01E8
:1000700077019E01AC0105A84CCDB2D44EB93836FB
:10008000A9020C50B9918688083CA6AAAA2ABE00EB
:100090000000803F11241FBECFEFD8E0DEBFCDBFF0
:1000A00011E0A0E0B1E0E2E0FCE102C005900D92B9
:1000B000A63DB107D9F722E0A6EDB1E001C01D923F
:1000C000A635B207E1F70E9474060C94FF0D0C945C
:1000D00000001F920F920FB60F9211241F932F93BF
:1000E0003F934F935F936F937F938F939F93AF93C0
:1000F000BF93CF93DF93EF93FF938091DA019091B9
:10010000DB0101969093DB018093DA01E09102011B
:10011000F0910301E730F10508F030C1EC5CFF4FCE
:100120000C94B20981349C4948F01092DB01109282
:10013000DA018FE785B985E090E009C1C091280216
:10014000D0912902E881F98180818F5F8083E881E5
:10015000F98190818181981708F01082EA81FB81F2
:1001600080818F5F8083EA81FB81908181819817F4
:1001700008F01082F99902C1E881F9812081858116
:100180009681820F911D0E94E90D182FEA81FB8153
:10019000208185819681820F911D0E94E90D90E05A
:1001A000810F911D9695879585B9E8C08091D801FA
:1001B0009091D90101969093D9018093D801209113
:1001C0002B0230E08217930720F01092D901109291
:1001D000D801F999D3C0409121022091D8013091E2
:1001E000D901429FC001439F900D112433E09695A1
:1001F00087953A95E1F70E94E90D70910601879F76
:10020000C0011124892F62C02091D8013091D901F9
:100210002F5F3F4F3093D9012093D80180912B025B
:10022000869590E02817390708F4A8C01092D901E4
:100230001092D8018091D701882339F0809106016E
:100240000E9472061092D70199C080E00E94720647
:1002500081E08093D70192C02091D8013091D901DB
:100260002F5F3F4F3093D9012093D80180912B020B
:10027000869590E02817390770F01092D9011092F6
:10028000D8018091D701882319F01092D70103C0BB
:1002900081E08093D7019091D7016091D80170914E
:1002A000D9018091060120912A02289F90011124F2
:1002B000992379F0269FC001279F900D369F900DBE
:1002C0001124880F892F881F990B91950E9472061F
:1002D00055C0269FA001279F500D369F500D112419
:1002E000440F452F441F550B5195841BEFCF809130
:1002F000D8019091D90101969093D9018093D801AA
:1003000020912B0230E08217930720F01092D90140
:100310001092D80180912A0290910601899FC00114
:1003200011244091D8015091D901849F9001859F5B
:10033000300D949F300D1124832FC8CF8134964007
:10034000E8F01092DB011092DA0186E090E09093E1
:1003500003018093020112C00E94DC041092DB01B1
:100360001092DA012FE725B9009741F09093290206
:10037000809328021092030110920201FF91EF91E5
:10038000DF91CF91BF91AF919F918F917F916F91AD
:100390005F914F913F912F911F910F900FBE0F9042
:1003A0001F9018958F929F92AF92BF92EF92FF92FB
:1003B0001F93CF93DF937C0187E090E00E94930C22
:1003C000EC01892B09F46FC01882B70180E090E03E
:1003D0000E94DF0A4B015C019B01AC0160E070E40C
:1003E0008CE197E40E943E0A0E94FF03898320E685
:1003F00035EE40ED5BE3C501B4010E94960B20E0B1
:1004000030E040E051E40E94960B0E94FF038A8393
:10041000FC82EB8280910001909101019E838D838B
:100420002981820F911D909301018093000110E0BA
:1004300069811617C0F570E080E090E00E94DF0A45
:100440009B01AC016BED7FE089EC90E40E943E0AD9
:100450004B015C01E12EF12CB7010F2C000C880B35
:10046000990B0E94E10A9B01AC01C501B4010E94F5
:10047000960B0E94030C20E030E040E053E40E9421
:10048000960B20E030E04EEF52E40E94CD090E942E
:10049000FF032D813E81682FC9018E0D9F1D0E9493
:1004A000F10D1F5FC5CFCE01DF91CF911F91FF905E
:1004B000EF90BF90AF909F908F9008950F931F93F0
:1004C000CF938C01C0E0F801EC0FF11D80818823EF
:1004D00021F00E940003CF5FF6CFCF911F910F91C3
:1004E00008951F920F920FB60F9211242F938F939E
:1004F0009F93EF93FF938091C0009091C6008C7101
:10050000E091DE01EF5FEF712091DD01E21739F03C
:10051000E093DE01F0E0EF51FE4F908301C082E0F6
:100520009091DC01892B8093DC01FF91EF919F91E9
:100530008F912F910F900FBE0F901F9018951F92C3
:100540000F920FB60F9211248F939F93EF93FF9307
:100550009091E0018091DF01981769F0E091DF014F
:10056000EF5FEF71E093DF01F0E0EF5FFD4F80811F
:100570008093C60005C08091C1008F7D8093C1002B
:10058000FF91EF919F918F910F900FBE0F901F9051
:1005900018951092E0011092DF011092DE01109286
:1005A000DD0197FF03C022E02093C0009078909374
:1005B000C5008093C40088E98093C10086E08093E1
:1005C000C20008959091DE018091DD019817A9F095
:1005D0009091DD019F5F9F71E92FF0E0EF51FE4F99
:1005E00020818091DC019093DD011092DC0190E08C
:1005F000982F8827820F911D089580E091E008953B
:100600009091E0019F5F9F712091DF019217E1F3CC
:10061000E92FF0E0EF5FFD4F80839093E001809140
:10062000C10080628093C1000895CF93DF93EC01F5
:100630008991882319F00E940003FACFDF91CF91AE
:100640000895CF93DF93FC018491EF0121968823D5
:1006500021F00E940003FE01F7CFDF91CF910895B2
:1006600087B18F7C87B988B1806388B9E9EBF0E006
:1006700080818C7F808388E98093B800089594EA14
:100680009093BC009091BC0097FFFCCF8093BB007F
:1006900084E88093BC008091BC0087FFFCCF9091E0
:1006A000B900987F983119F081E0903409F480E026
:1006B00008958093BB0084E88093BC008091BC00C7
:1006C00087FFFCCF089584EC8093BC008091BC0030
:1006D00087FFFCCF8091BB00089584E88093BC0025
:1006E0008091BC0087FFFCCF8091BB00089584E916
:1006F0008093BC000895FC01408121E030E001C0FE
:10070000220F6A95EAF7242B20830895FC0180814B
:1007100021E030E001C0220F6A95EAF7209582239C
:10072000808380818181282321830895FC01808139
:1007300021E030E001C0220F6A95EAF7922F9095F0
:100740008923808380818181282B21830895FC0166
:10075000908121E030E001C0220F6A95EAF72095F0
:10076000292320830895FC01408121E030E001C06D
:10077000220F6A95EAF7242B20830895FC0140811B
:1007800021E030E001C0220F6A95EAF72427208398
:100790000895FC01808190E002C0959587956A9547
:1007A000E2F762E070E00E949E09089580937C0069
:1007B00080917C00806480937C0080917C008F7DA0
:1007C00080937C0080917A00876080937A0080918A
:1007D0007A00806880937A0080917A0080648093A8
:1007E0007A0080917A0086FDFCCF2091780080917C
:1007F000790090E0982F8827820F911D0895CF925D
:10080000DF92EF92FF92CF936B017C0120E030E00A
:10081000A9010E94910B18162CF520E030E04FE75B
:1008200053E4C701B6010E94390A87FF1DC0C70102
:10083000B6010E94B00AC62F70E080E090E00E94EE
:10084000DF0A9B01AC01C701B6010E94CC0920E080
:1008500030E040E05FE30E94390A87FD07C081E095
:100860008C0F05C080E003C08FEF01C08C2FCF91AB
:10087000FF90EF90DF90CF9008954F925F926F922C
:100880007F928F929F92AF92BF92EF92FF920F93BF
:100890001F93CF93DF938C017B01C0E0D0E04C012C
:1008A000A12CB12CC017D10789F1C501B4010E9458
:1008B000DF0A9B01AC016BED7FE089EC90E40E94C4
:1008C0003E0A2B013C01BE0180E090E00E94DF0A5D
:1008D0009B01AC01C301B2010E94960B0E94030C64
:1008E00020E030E040E053E40E94960B20E030E04E
:1008F0004EEF52E40E94CD090E94FF03682FC7010A
:100900008C0F9D1F0E94F10D2196CCCFDF91CF91CE
:100910001F910F91FF90EF90BF90AF909F908F909D
:100920007F906F905F904F900895109251021092B7
:10093000500210924D0210924C0210924F021092EF
:100940004E020895CF93DF93EC0184E090E00E9483
:10095000930C009769F1FC01D183C083138212824A
:1009600020915002309151022115310579F4909374
:100970004D0280934C0290934F0280934E0281E08F
:1009800090E0909351028093500213C0E0914E0288
:10099000F0914F029383828390934F0280934E0293
:1009A0002F5F3F4F309351022093500281E001C0EE
:1009B00080E0DF91CF910895CF93DF938091500233
:1009C000909151020097B9F0E0914C02F0914D02E4
:1009D000D081C1812281338130934D0220934C021A
:1009E00001979093510280935002CF010E942B0DEA
:1009F0008D2F9C2F02C080E090E0DF91CF91089571
:100A0000CF93C82F80E40E943F038C2F80610E9407
:100A1000590387EB9BE00197F1F700C000008C2F92
:100A20000E9459030E94770387EB9BE00197F1F73F
:100A300000C00000CF910895CF93DF93C82FD62F29
:100A400082958F70862B0E9400058C2F8F708D2BC6
:100A5000DF91CF910C94000560E20C941C050F937C
:100A60001F93CF938C01C0E0F801EC0FF11D808142
:100A7000882321F00E942C05CF5FF6CFCF911F91E4
:100A80000F910895CF93DF9300D000D01F92CDB780
:100A9000DEB725E0E9E1F1E0DE01119601900D926B
:100AA0002A95E1F74AE0BE016F5F7F4F0E94B40DC7
:100AB000CE0101960E942F050F900F900F900F907E
:100AC0000F90DF91CF9108951F93CF93DF93EC01A7
:100AD000162F60E085EC0E941C05113019F48EE998
:100AE00091E002C082E491E00E942F0580EA91E04B
:100AF0000E942F05CE010E94420582E491E00E94EF
:100B00002F0560E08DEC0E941C0584EA91E0DF91E6
:100B1000CF911F910C942F050F931F93CF93DF93C9
:100B200000D01F92CDB7DEB7182F062F60E085E802
:100B30000E941C05011103C08EE991E002C082E40D
:100B400091E00E942F0588EA91E00E942F05812FF5
:100B500090E019821A821B82FE01319623E04AE05E
:100B60008433910528F0C39730813F5F3083F8CFFD
:100B7000BC01469FC001479F900D11242150319622
:100B80002111EECF898190E00E9442058CEA91E02C
:100B90000E942F058A8190E00E9442058B8190E09F
:100BA0000E94420560E08DE80E941C058EEA91E0FB
:100BB0000F900F900F90DF91CF911F910F910C9498
:100BC0002F0560E088E20C941C05CF93C82F8FE5B9
:100BD0009AEE0197F1F700C000000E94300382E016
:100BE0000E94000560E08C2F88600E941C05CF9158
:100BF0000C94E105611102C0806802C060E0806C65
:100C00000C941C0560E088E10C941C0560E08CE10C
:100C10000C941C0560E081E00C941C05EF92FF929F
:100C20000F931F93CF93DF938C01D62F7A01C22F9E
:100C30000E940A0660E080E80E941C05023011054F
:100C4000B1F048F40115110579F00130110521F5D5
:100C50008BEB91E011C00330110561F004301105F8
:100C6000D9F48AEC91E008C081EB91E017C080ECE8
:100C700091E002C085EC91E00E942F056C2F8D2F32
:100C80000E948C056C2FC701DF91CF911F910F91AE
:100C9000FF90EF900C9464058FEC91E0DF91CF9181
:100CA0001F910F91FF90EF900C942F050F931F93BE
:100CB000CF93DF938B018F7360E080640E941C05EB
:100CC000E801085F1F4F60E289910E941C05C01770
:100CD000D107C9F760E080E8DF91CF911F910F91B4
:100CE0000C941C0585B90895CF93DF9300D000D0F4
:100CF000CDB7DEB788E090E00E94C9028FE191E0B5
:100D00000E945E0284E00E94E5054091040150913A
:100D100005016091060170E02091D60180E090E02D
:100D20000E940E0684B18FEF84B985B18F6785B9B3
:100D3000609104017091050180E090E00E94DF0A5B
:100D40009B01AC0160E070E48CE197E40E943E0AF4
:100D50000E94FF0380932B026091040170910501B2
:100D600080E090E00E94DF0A20E635EE40ED5BE394
:100D70000E94960B20E030E040E051E40E94960B88
:100D80000E94FF038093210260912B0270E080E0BB
:100D900090E00E94E10A9B01AC0160E070E08FE707
:100DA00093E40E943E0A0E94FF0380932A0289EB8B
:100DB00092E00E94D20190932D0280932C0282E057
:100DC00093E00E94D20190932F0280932E0284E53B
:100DD00093E00E94D20190933102809330028DEA19
:100DE00093E00E94D201909333028093320289EB08
:100DF00094E00E94D201909323028093220288E320
:100E000095E00E94D201909325028093240285EC04
:100E100095E00E94D2019093270280932602BCE2C3
:100E2000EB2EB2E0FB2E04E312E0A2E2CA2EA2E017
:100E3000DA2E1C821B8284E090E00E94930CF70162
:100E400020813181FC0131832083F6012191319190
:100E50006F01FC0133832283EB81FC81E00FF11FE2
:100E6000918380838B819C8102969C838B830697E0
:100E700011F792E0E90EF11C0A5F1F4FE2E00C341B
:100E80001E0799F660E087E290E00E94960361E019
:100E900087E290E00E94960362E087E290E00E9481
:100EA000960363E087E290E00E94960364E08AE2A2
:100EB00090E00E947B0365E08AE290E00E947B0361
:100EC00066E08AE290E00E947B0367E08AE290E0BD
:100ED0000E947B0364E08BE290E00E94A70365E040
:100EE0008BE290E00E94A70366E08BE290E00E9414
:100EF000A70367E08BE290E00E94A70366E087E229
:100F000090E00E947B038091810088608093810043
:100F100080E991E0909389008093880080916F0030
:100F2000826080936F0080918100897F809381002F
:100F300080918100816080938100789453E0452EF8
:100F4000512C66246394712C74E0C72ED12CE2E0FE
:100F5000AE2EB12CF6E08F2E912C66E088E290E068
:100F60000E94BE03F1E0F983312CE12CF12C44E026
:100F7000242E230C622D8BE290E00E94B30395E3B4
:100F80009A95F1F70000E6B1EF70EA838E2F815059
:100F9000833080F58E2F90E001979C838B838701AF
:100FA000000F111F0E0D1F1DFC01E00FF11FEE0FB2
:100FB000FF1FEC5CFD4F808191810E94A20483E3BE
:100FC00091E00E941503095F1E4FEB81FC81E00F49
:100FD000F11F80810E9400038BE991E00E941503BC
:100FE000FFEF29E688E1F15020408040E1F700C0A2
:100FF00000009AC19A81943009F0DCC0409104014C
:1010000050910501311010C09092030180920201AD
:101010006091060170E02091D60180E090E00E948E
:101020000E068FE191E012C0E1E03E121EC0B092C8
:101030000301A09202016091060170E02091D601A7
:1010400082E090E00E940E0684E491E00E94150385
:10105000622D8BE290E00E94A7032FEFE21AF20AC2
:10106000339489818F5F898382CFF2E03F1210C071
:10107000D0920301C09202016091060170E02091BC
:10108000D60184E090E00E940E068AE591E0DECF72
:101090008091D601882309F449C0493C510530F0BC
:1010A000415051095093050140930401609104019E
:1010B0007091050180E090E00E94DF0A9B01AC0185
:1010C00060E070E48CE197E40E943E0A0E94FF0316
:1010D00080932B02609104017091050180E090E003
:1010E0000E94DF0A20E635EE40ED5BE30E94960B9E
:1010F00020E030E040E051E40E94960B0E94FF03A4
:101100008093210260912B0270E080E090E00E94C9
:10111000E10A9B01AC0160E070E08FE793E40E947C
:101120003E0A0E94FF0380932A02BFC080910601FD
:10113000882319F0815080930601BA0180E090E085
:101140000E94DF0A9B01AC0160E070E48CE197E44F
:101150000E943E0A0E94FF0380932B0260910401CB
:101160007091050180E090E00E94DF0A20E635EEF4
:1011700040ED5BE30E94960B20E030E040E051E45C
:101180000E94960B0E94FF038093210260912B0224
:1011900070E080E090E00E94E10A9B01AC0160E019
:1011A00070E08FE793E40E943E0A0E94FF03809361
:1011B0002A02B4C02A81253009F0B6C0409104014A
:1011C00050910501311010C070920301609202012C
:1011D0006091060170E02091D60181E090E00E94CC
:1011E0000E0682E791E012C081E0381212C05092E0
:1011F0000301409202016091060170E02091D60146
:1012000083E090E00E940E0686E891E00E941503BC
:101210008BC08091D60192E039120EC0882319F05C
:101220001092D60103C0E1E0E093D6016091D601AF
:10123000CA010E94640572C0882309F43FC0403D82
:10124000F7E05F0730F44F5F5F4F50930501409325
:101250000401609104017091050180E090E00E941A
:10126000DF0A9B01AC0160E070E48CE197E40E942E
:101270003E0A0E94FF0380932B026091040170914B
:10128000050180E090E00E94DF0A20E635EE40EDA7
:101290005BE30E94960B20E030E040E051E40E94C6
:1012A000960B0E94FF03809321026091D6018091EA
:1012B0000401909105010E94640536C080910601E9
:1012C0008F3F19F08F5F80930601BA0180E090E0B4
:1012D0000E94DF0A9B01AC0160E070E48CE197E4BE
:1012E0000E943E0A0E94FF0380932B02609104013A
:1012F0007091050180E090E00E94DF0A20E635EE63
:1013000040ED5BE30E94960B20E030E040E051E4CA
:101310000E94960B0E94FF03809321026091D601E8
:10132000809106010E948C05622D8BE290E00E9464
:10133000A7032981243009F090CE0FCE97FB072E0A
:1013400016F4009407D077FD09D00E94B80907FC75
:1013500005D03EF4909581959F4F089570956195C5
:101360007F4F0895EE0FFF1F0590F491E02D099433
:10137000AA1BBB1B51E107C0AA1FBB1FA617B707BB
:1013800010F0A61BB70B881F991F5A95A9F78095D7
:101390009095BC01CD0108955058BB27AA270E9403
:1013A000E4090C94570B0E94490B38F00E94500B33
:1013B00020F039F49F3F19F426F40C94460B0EF4F8
:1013C000E095E7FB0C94400BE92F0E94680B58F363
:1013D000BA17620773078407950720F079F4A6F51A
:1013E0000C948A0B0EF4E0950B2EBA2FA02D0B0156
:1013F000B90190010C01CA01A0011124FF27591B5A
:1014000099F0593F50F4503E68F11A16F040A22F5F
:10141000232F342F4427585FF3CF469537952795D0
:10142000A795F0405395C9F77EF41F16BA0B620BCF
:10143000730B840BBAF09150A1F0FF0FBB1F661F16
:10144000771F881FC2F70EC0BA0F621F731F841F59
:1014500048F4879577956795B795F7959E3F08F07F
:10146000B0CF9395880F08F09927EE0F9795879541
:1014700008950E941C0B08F481E008950E94520A0E
:101480000C94570B0E94500B58F00E94490B40F0EF
:1014900029F45F3F29F00C94400B51110C948B0BF5
:1014A0000C94460B0E94680B68F39923B1F3552303
:1014B00091F3951B550BBB27AA2762177307840767
:1014C00038F09F5F5F4F220F331F441FAA1FA9F3FD
:1014D00035D00E2E3AF0E0E832D091505040E695EB
:1014E000001CCAF72BD0FE2F29D0660F771F881F4C
:1014F000BB1F261737074807AB07B0E809F0BB0B3F
:10150000802DBF01FF2793585F4F3AF09E3F510552
:1015100078F00C94400B0C948B0B5F3FE4F3983EF7
:10152000D4F3869577956795B795F7959F5FC9F73B
:10153000880F911D9695879597F90895E1E0660FBC
:10154000771F881FBB1F621773078407BA0720F035
:10155000621B730B840BBA0BEE1F88F7E09508959E
:101560000E94700B88F09F5798F0B92F9927B751B8
:10157000B0F0E1F0660F771F881F991F1AF0BA9537
:10158000C9F714C0B13091F00E948A0BB1E0089500
:101590000C948A0B672F782F8827B85F39F0B93FF2
:1015A000CCF3869577956795B395D9F73EF49095EA
:1015B0008095709561957F4F8F4F9F4F0895E89468
:1015C00009C097FB3EF490958095709561957F4F8B
:1015D0008F4F9F4F9923A9F0F92F96E9BB27939539
:1015E000F695879577956795B795F111F8CFFAF449
:1015F000BB0F11F460FF1BC06F5F7F4F8F4F9F4F7A
:1016000016C0882311F096E911C0772321F09EE8D7
:10161000872F762F05C0662371F096E8862F70E03D
:1016200060E02AF09A95660F771F881FDAF7880F17
:101630009695879597F90895990F0008550FAA0B6D
:10164000E0E8FEEF16161706E807F907C0F01216D5
:101650001306E407F50798F0621B730B840B950BD8
:1016600039F40A2661F0232B242B252B21F408952D
:101670000A2609F4A140A6958FEF811D811D0895CA
:1016800097F99F6780E870E060E008959FEF80EC35
:10169000089500240A9416161706180609060895D8
:1016A00000240A9412161306140605060895092E3E
:1016B0000394000C11F4882352F0BB0F40F4BF2BAD
:1016C00011F460FF04C06F5F7F4F8F4F9F4F0895ED
:1016D00057FD9058440F551F59F05F3F71F04795E3
:1016E000880F97FB991F61F09F3F79F087950895C8
:1016F000121613061406551FF2CF4695F1DF08C0E7
:10170000161617061806991FF1CF86957105610503
:1017100008940895E894BB2766277727CB0197F9AB
:1017200008950E941C0B08F48FEF08950E94A90BE6
:101730000C94570B0E94490B38F00E94500B20F07C
:10174000952311F00C94400B0C94460B11240C942F
:101750008B0B0E94680B70F3959FC1F3950F50E0BF
:10176000551F629FF001729FBB27F00DB11D639F53
:10177000AA27F00DB11DAA1F649F6627B00DA11DF9
:10178000661F829F2227B00DA11D621F739FB00D9F
:10179000A11D621F839FA00D611D221F749F33270F
:1017A000A00D611D231F849F600D211D822F762FA8
:1017B0006A2F11249F5750409AF0F1F088234AF085
:1017C000EE0FFF1FBB1F661F771F881F91505040F1
:1017D000A9F79E3F510580F00C94400B0C948B0BA5
:1017E0005F3FE4F3983ED4F3869577956795B79578
:1017F000F795E7959F5FC1F7FE2B880F911D969592
:10180000879597F908959F930E940D0C0F9007FC00
:10181000EE5F0C94360C0C94460B0E94700BD8F3C0
:10182000E894E0E0BB279F57F0F02AED3FE049EC59
:1018300006C0EE0FBB0F661F771F881F28F0B23A55
:1018400062077307840728F0B25A620B730B840B8C
:10185000E3959A9572F7803830F49A95BB0F661F1E
:10186000771F881FD2F790480C944C0CEF93E0FF41
:1018700007C0A2EA2AED3FE049EC5FEB0E94E409D1
:101880000E94570B0F90039401FC9058E6E7F0E09C
:101890000C94580C9F3F31F0915020F48795779528
:1018A0006795B795880F911D9695879597F9089537
:1018B0009F938F937F936F93FF93EF939B01AC0163
:1018C0000E94960BEF91FF910E946C0C2F913F911B
:1018D0004F915F910C94960BDF93CF931F930F93CF
:1018E000FF92EF92DF927B018C01689406C0DA2EA2
:1018F000EF010E94A90BFE01E894A5912591359175
:1019000045915591A6F3EF010E94E409FE0197016C
:10191000A801DA9469F7DF90EF90FF900F911F9183
:10192000CF91DF9108950F931F93CF93DF93823070
:10193000910510F482E090E0E0915402F09155029C
:1019400020E030E0A0E0B0E0309719F14081518113
:101950000281138148175907C8F08417950769F465
:10196000109731F012960C93129713961C9327C080
:10197000009354021093550222C02115310519F02D
:101980004217530718F49A01BD01EF01DF01F80176
:10199000DBCF21153105F9F0281B390B2430310537
:1019A00080F48A819B816115710521F0FB0193838D
:1019B000828304C09093550280935402FE013296B4
:1019C00044C0FE01E20FF31F81939193225031092D
:1019D000398328833AC02091520230915302232B3D
:1019E00041F4209115013091160130935302209358
:1019F000520220911301309114012115310541F457
:101A00002DB73EB74091170150911801241B350B9B
:101A1000E0915202F0915302E217F307A0F42E1B5B
:101A20003F0B2817390778F0AC014E5F5F4F241742
:101A3000350748F04E0F5F1F5093530240935202F8
:101A40008193919302C0E0E0F0E0CF01DF91CF916C
:101A50001F910F910895CF93DF93009709F481C0F0
:101A6000FC01329713821282A0915402B091550268
:101A7000109781F420813181820F931F20915202AF
:101A8000309153022817390751F5F0935302E09330
:101A9000520267C0ED0120E030E0CE17DF0740F4CE
:101AA0004A815B819E0141155105F1F0EA01F5CFB4
:101AB000D383C28340815181840F951FC817D907F2
:101AC00059F488819981840F951F029691838083B0
:101AD0008A819B81938382832115310529F4F093B8
:101AE0005502E09354023DC0E901FB83EA8349912A
:101AF0005991C40FD51FEC17FD0761F480819181C6
:101B0000840F951F0296E9019983888382819381CE
:101B10009B838A83E0E0F0E012968D919C9113976D
:101B2000009719F0FD01DC01F7CF8D919C91119781
:101B30009D012E5F3F4F820F931F209152023091E3
:101B400053022817390769F4309729F41092550287
:101B50001092540202C013821282B0935302A093D7
:101B60005202DF91CF910895BB274A3031F4992377
:101B700022F4BDE2909581959F4F0C94C00DBB2738
:101B8000FB015527AA27880F991FAA1FA41710F039
:101B9000A41B83955051B9F7A05DAA3308F0A95D45
:101BA000A193009779F7B111B1931192CB010C94E5
:101BB000D90DDC01FC01672F71917723E1F7329792
:101BC00004C07C916D9370836291AE17BF07C8F318
:101BD0000895F999FECF92BD81BDF89A992780B5F5
:101BE0000895262FF999FECF1FBA92BD81BD20BD61
:101BF0000FB6F894FA9AF99A0FBE01960895F894E0
:021C0000FFCF14
:101C0200FF000600E803FF31323334353637383906
:101C12002A3023000056022000303030303000538A
:101C2200454C4543543A204454464D204D4F44457B
:101C32000D0A005072657373656420627574746F67
:101C42006E3A200053454C4543543A205351554176
:101C52005245204D4F44450D0A0053454C454354CF
:101C62003A20534157544F4F5448204D4F44450D4D
:101C72000A0053454C4543543A2053494E45204DA2
:101C82004F44450D0A0053454C4543543A205452A3
:101C9200494142474C45204D4F44450D0A002A0018
:101CA200663D200020487A00553D20002E00205637
:101CB200004454464D204D4F44450053494E450083
:101CC2005351554500545249410053415754005015
:061CD200415553450000DE
:00000001FF
