:100000000C9434000C9451000C9451000C94510049
:100010000C9451000C9451000C9451000C9451001C
:100020000C9451000C9451000C9451000C9451000C
:100030000C9451000C94BE000C9451000C9451008F
:100040000C9493000C9451000C9451000C945100AA
:100050000C9451000C9451000C9451000C945100DC
:100060000C9451000C94510011241FBECFEFD8E026
:10007000DEBFCDBF11E0A0E0B1E0E0ECF3E002C0F4
:1000800005900D92A230B107D9F721E0A2E0B1E0CE
:1000900001C01D92A430B207E1F70E946D010C94DB
:1000A000DE010C9400006091000180910301653035
:1000B00081F4811121C081E08093030185E290E009
:1000C0000E94150164E085E290E00E94210184E035
:1000D00010C0623089F4813079F41092030185E216
:1000E00090E00E94150163E085E290E00E9421010A
:1000F00083E0809300010895813041F485E290E02F
:100100000E94150160910001615007C085E290E0F6
:100110000E941501609100016F5F6093000185E20C
:1001200090E00C9421011F920F920FB60F921124B0
:100130002F933F934F935F936F937F938F939F93EF
:10014000AF93BF93EF93FF9360E089E290E00E944A
:100150003701811102C00E945300FF91EF91BF91BE
:10016000AF919F918F917F916F915F914F913F914F
:100170002F910F900FBE0F901F9018951F920F9206
:100180000FB60F9211242F933F934F935F936F936A
:100190007F938F939F93AF93BF93EF93FF9360E011
:1001A00089E290E00E943701813011F40E945300EF
:1001B000FF91EF91BF91AF919F918F917F916F913F
:1001C0005F914F913F912F910F900FBE0F901F9015
:1001D0001895FC01408121E030E001C0220F6A95B2
:1001E000EAF7242B20830895FC01808121E030E090
:1001F00001C0220F6A95EAF72095822380838081CF
:100200008181282321830895FC01808121E030E051
:1002100001C0220F6A95EAF7922F90958923808377
:1002200080818181282B21830895FC01908121E028
:1002300030E001C0220F6A95EAF720952923208338
:100240000895FC01408121E030E001C0220F6A9551
:10025000EAF7242B20830895FC01408121E030E05F
:1002600001C0220F6A95EAF7242720830895FC0134
:10027000808190E002C0959587956A95E2F762E0EB
:1002800070E00E94B601089580937C0080917C000C
:10029000806480937C0080917C008F7D80937C00C3
:1002A00080917A00876080937A0080917A008068DC
:1002B00080937A0080917A00806480937A008091A4
:1002C0007A0086FDFCCF209178008091790090E043
:1002D000982F8827820F911D089565E084E290E0B1
:1002E0000E94E90065E085E290E00E94210164E05F
:1002F00084E290E00E94E90064E085E290E00E94E0
:10030000150163E084E290E00E94E90063E085E289
:1003100090E00E94150162E084E290E00E94E90012
:1003200062E085E290E00E94150160E08AE290E0E0
:100330000E940401809181008C7F809381008091D4
:10034000810084608093810080916F008160809340
:100350006F0085B58D7F85BD85B5856085BD809134
:100360006E00816080936E007894FFCF97FB072E1C
:1003700016F4009407D077FD09D00E94CA0107FC4B
:1003800005D03EF4909581959F4F089570956195A5
:100390007F4F0895AA1BBB1B51E107C0AA1FBB1FBB
:1003A000A617B70710F0A61BB70B881F991F5A9501
:1003B000A9F780959095BC01CD010895F894FFCFE1
:0203C000050036
:00000001FF
