:100000000C9434000C943E000C943E000C943E0082
:100010000C943E000C943E000C943E000C943E0068
:100020000C943E000C943E000C943E000C943E0058
:100030000C943E000C943E000C943E000C943E0048
:100040000C943E000C943E000C943E000C943E0038
:100050000C943E000C943E000C943E000C943E0028
:100060000C943E000C943E0011241FBECFEFD8E04C
:10007000DEBFCDBF0E94C4000C9416010C9400009A
:10008000FC01408121E030E001C0220F6A95EAF7CF
:10009000242B20830895FC01808121E030E001C001
:1000A000220F6A95EAF720958223808380818181DF
:1000B000282321830895FC01808121E030E001C0E4
:1000C000220F6A95EAF7922F909589238083808189
:1000D0008181282B21830895FC01908121E030E06B
:1000E00001C0220F6A95EAF72095292320830895FD
:1000F000FC01408121E030E001C0220F6A95EAF75F
:10010000242B20830895FC01408121E030E001C0D0
:10011000220F6A95EAF7242720830895FC01808145
:1001200090E002C0959587956A95E2F762E070E0ED
:100130000E94EE00089580937C0080917C00806492
:1001400080937C0080917C008F7D80937C008091E7
:100150007A00876080937A0080917A00806880932B
:100160007A0080917A00806480937A0080917A008E
:1001700086FDFCCF209178008091790090E0982F47
:100180008827820F911D089565E084E290E00E9427
:10019000400060E087E290E00E94400060E08AE278
:1001A00090E00E945B002FEF84E39CE021508040B0
:1001B0009040E1F700C0000060E089E290E00E941A
:1001C0008E00813081F765E085E290E00E94830037
:1001D00060E088E290E00E948300E5CF97FB072E65
:1001E00016F4009407D077FD09D00E94020107FCA5
:1001F00005D03EF4909581959F4F08957095619537
:100200007F4F0895AA1BBB1B51E107C0AA1FBB1F4C
:10021000A617B70710F0A61BB70B881F991F5A9592
:10022000A9F780959095BC01CD010895F894FFCF72
:00000001FF
