:100000000C9434000C9451000C9451000C94510049
:100010000C9451000C9451000C9451000C9451001C
:100020000C9451000C9451000C9451000C9451000C
:100030000C9451000C9453000C9451000C945100FA
:100040000C9451000C9451000C9451000C945100EC
:100050000C9451000C9451000C9451000C945100DC
:100060000C9451000C94510011241FBECFEFD8E026
:10007000DEBFCDBF11E0A0E0B1E0EEE4F4E002C0ED
:1000800005900D92A431B107D9F721E0A4E1B1E0C8
:1000900001C01D92A531B207E1F70E94EA010C945C
:1000A00025020C9400001F920F920FB60F9211249C
:1000B0002F933F934F935F936F937F938F939F9370
:1000C000AF93BF93EF93FF93809114018F5F8630BE
:1000D00018F48093140102C010921401809114014D
:1000E0000E948301FF91EF91BF91AF919F918F91FA
:1000F0007F916F915F914F913F912F910F900FBE24
:100100000F901F901895FC01408121E030E001C064
:10011000220F6A95EAF7242B20830895FC01808141
:1001200021E030E001C0220F6A95EAF72095822392
:10013000808380818181282321830895FC0180812F
:1001400021E030E001C0220F6A95EAF7922F9095E6
:100150008923808380818181282B21830895FC015C
:10016000908121E030E001C0220F6A95EAF72095E6
:10017000292320830895FC01408121E030E001C063
:10018000220F6A95EAF7242B20830895FC01408111
:1001900021E030E001C0220F6A95EAF7242720838E
:1001A0000895FC01808190E002C0959587956A953D
:1001B000E2F762E070E00E94FD01089580937C0008
:1001C00080917C00806480937C0080917C008F7D96
:1001D00080937C0080917A00876080937A00809180
:1001E0007A00806880937A0080917A00806480939E
:1001F0007A0080917A0086FDFCCF20917800809172
:10020000790090E0982F8827820F911D089564E06F
:100210008AE290E00E94830067E08AE290E00E9418
:10022000830060E084E290E00C9483001F93CF93FE
:10023000DF93E82FF0E0E65FFE4F1081E62FF0E05D
:10024000EA5FFE4FD08164E08BE290E00E94AF0055
:1002500067E08BE290E00E94AF0060E085E290E012
:100260000E94AF0085E08A95F1F70000C8E060E0E9
:1002700085E290E010FF03C00E94BB0002C00E9414
:10028000AF0085E08A95F1F7000067E08BE290E02F
:100290000E94BB0085E08A95F1F7000067E08BE2E1
:1002A00090E00E94AF001695C15009F7C8E060E0E9
:1002B00085E290E0D0FF03C00E94BB0002C00E9414
:1002C000AF0085E08A95F1F7000067E08BE290E0EF
:1002D0000E94BB0085E08A95F1F7000067E08BE2A1
:1002E00090E00E94AF00D695C15009F764E08BE220
:1002F00090E00E94BB0085E08A95F1F70000DF9155
:10030000CF911F910895CF93DF93E82FF0E0E05055
:10031000FF4FD08164E08BE290E00E94AF0067E085
:100320008BE290E00E94AF0060E085E290E00E94E6
:10033000AF0085E08A95F1F70000C8E060E085E253
:1003400090E0D0FF03C00E94BB0002C00E94AF003B
:1003500085E08A95F1F7000067E08BE290E00E946B
:10036000BB0085E08A95F1F7000067E08BE290E042
:100370000E94AF00D695C15009F7C8E0D0E160E017
:1003800085E290E0D0FF03C00E94BB0002C00E9443
:10039000AF0085E08A95F1F7000067E08BE290E01E
:1003A0000E94BB0085E08A95F1F7000067E08BE2D0
:1003B00090E00E94AF00D695C15009F764E08BE24F
:1003C00090E00E94BB0085E08A95F1F70000DF9184
:1003D000CF9108950E940701809181008B7F8093C7
:1003E00081008091810083608093810080916F0003
:1003F000816080936F007894FFCF97FB072E16F4EF
:10040000009407D077FD09D00E94110207FC05D0A7
:100410003EF4909581959F4F0895709561957F4F1B
:100420000895AA1BBB1B51E107C0AA1FBB1FA6173B
:10043000B70710F0A61BB70B881F991F5A95A9F78D
:0E04400080959095BC01CD010895F894FFCFF2
:10044E007FBFDFEFF7FB10204080039F250D9949FA
:04045E00411F010930
:00000001FF
