:100000000C9434000C9451000C9451000C94510049
:100010000C9451000C9451000C9451000C9451001C
:100020000C9451000C9451000C9451000C9451000C
:100030000C9451000C9451000C9451000C945100FC
:100040000C9451000C9451000C94A5000C94D30016
:100050000C9451000C9451000C9451000C945100DC
:100060000C9451000C94510011241FBECFEFD8E026
:10007000DEBFCDBF11E0A0E0B1E0E6EBF5E002C0ED
:1000800005900D92AE34B107D9F721E0AEE4B1E0AE
:1000900001C01D92A339B207E1F70E945A020C94E5
:1000A000D9020C940000CF93DF93CDB7DEB7299728
:1000B0000FB6F894DEBF0FBECDBF29E0E8E0F1E057
:1000C000DE01119601900D922A95E1F742E0BE0102
:1000D0006F5F7F4F0E94A402CE0101960E944901EA
:1000E00029960FB6F894DEBF0FBECDBFDF91CF913A
:1000F00008950F931F93CF93DF93082F80E30E94FF
:10010000340188E70E943401C7E0D0E0002E000CE3
:10011000110BC8010C2E02C0959587950A94E2F741
:1001200080FF02C081E301C080E30E943401209778
:1001300039F0C43019F480E20E9434012197E9CFEC
:10014000DF91CF911F910F9108951F920F920FB6DB
:100150000F9211242F938F939F93EF93FF9380918E
:10016000C0009091C6008C71E0915001EF5FEF717B
:1001700020914F01E21739F0E0935001F0E0ED5A81
:10018000FE4F908301C082E090914E01892B8093B5
:100190004E01FF91EF919F918F912F910F900FBE84
:1001A0000F901F9018951F920F920FB60F92112467
:1001B0008F939F93EF93FF93909152018091510100
:1001C000981769F0E0915101EF5FEF71E0935101F1
:1001D000F0E0ED58FE4F80818093C60005C080910D
:1001E000C1008F7D8093C100FF91EF919F918F910E
:1001F0000F900FBE0F901F90189510925201109201
:1002000051011092500110924F0197FF03C022E05C
:100210002093C00090789093C5008093C40088E933
:100220008093C10086E08093C200089590915001B0
:1002300080914F019817A9F090914F019F5F9F7196
:10024000E92FF0E0ED5AFE4F208180914E0190930E
:100250004F0110924E0190E0982F8827820F911D38
:10026000089580E091E00895909152019F5F9F7101
:10027000209151019217E1F3E92FF0E0ED58FE4F84
:100280008083909352018091C10080628093C1006D
:100290000895CF93DF93EC018991882319F00E9490
:1002A0003401FACFDF91CF910895CF93DF93FC0112
:1002B0008491EF012196882321F00E943401FE01F0
:1002C000F7CFDF91CF91089587B18F7C87B988B13F
:1002D000806388B9E9EBF0E080818C7F808388E9D6
:1002E0008093B800089594EA9093BC009091BC006C
:1002F00097FFFCCF8093BB0084E88093BC00809183
:10030000BC0087FFFCCF9091B900987F983119F01D
:1003100081E0903409F480E008958093BB0084E884
:100320008093BC008091BC0087FFFCCF089584ECD3
:100330008093BC008091BC0087FFFCCF8091BB0004
:10034000089584E88093BC008091BC0087FFFCCFB7
:100350008091BB00089584E98093BC000895CF93F9
:10036000C82F80E40E9473018C2F80610E948D0150
:1003700087EB9BE00197F1F700C000008C2F0E94F3
:100380008D010E94AB0187EB9BE00197F1F700C064
:100390000000CF910895CF93DF93C82FD62F829579
:1003A0008F70862B0E94AF018C2F8F708D2BDF9169
:1003B000CF910C94AF0160E20C94CB010F931F938B
:1003C000CF938C01C0E0F801EC0FF11D80818823F0
:1003D00021F00E94DB01CF5FF6CFCF911F910F91EB
:1003E0000895CF93DF9300D000D01F92CDB7DEB732
:1003F00025E0E2E1F1E0DE01119601900D922A95EF
:10040000E1F74AE050E0BE016F5F7F4F0E94990222
:10041000CE0101960E94DE010F900F900F900F9079
:100420000F90DF91CF910895CF93C82F8FE59AEE6B
:100430000197F1F700C000000E94640182E00E9471
:10044000AF0160E08C2F8860CF910C94CB0160E00D
:100450000C94CB01611102C0806802C060E0806C26
:100460000C94CB0160E088E10C94CB0160E08CE15E
:100470000C94CB0160E081E00C94CB010F931F93AF
:10048000CF93DF938B018F7360E080640E94CB0178
:10049000E801085F1F4F60E289910E94CB01C017FD
:1004A000D107C9F760E080E8DF91CF911F910F91EC
:1004B0000C94CB0187E00E94140288E20E9427027C
:1004C00087E690E00E94FD0080E30E9479008AE0C8
:1004D0000E94340180E390E00E9453008CE00E946F
:1004E0003401789488E191E00E94490160E071E074
:1004F00080E00E943E0280E00E94DB0186E391E002
:100500000E94DE0189E391E00E94DE018DE391E02B
:100510000E94DE0161E080E00E942A0281E491E015
:100520000E94DE010E943A0260E080E00E942A02FE
:10053000FFCF4532510520F4423010F00C94A40254
:10054000FB011082CB010895BB274A3031F4992377
:1005500022F4BDE2909581959F4F0C94B002BB2789
:10056000FB015527AA27880F991FAA1FA41710F06F
:10057000A41B83955051B9F7A05DAA3308F0A95D7B
:10058000A193009779F7B111B1931192CB010C941B
:10059000C902DC01FC01672F71917723E1F73297E3
:1005A00004C07C916D9370836291AE17BF07C8F34E
:0605B0000895F894FFCF4E
:1005B600040E040E15040A0A303030303030303064
:1005C60030003030303030000D0A5363616E204900
:1005D60032432D62757320666F7220646576696397
:1005E60065733A0D0A0044450044453200444533DC
:0E05F600002140232425735E262A28290000B8
:00000001FF
