:100000000C9434000C9451000C9451000C94510049
:100010000C9451000C9451000C9451000C9451001C
:100020000C9451000C9453000C9451000C9451000A
:100030000C9451000C9451000C9451000C945100FC
:100040000C9410010C9451000C9451000C9451002C
:100050000C9451000C9451000C9451000C945100DC
:100060000C9451000C94510011241FBECFEFD8E026
:10007000DEBFCDBF11E0A0E0B1E0E2EFF6E002C0EC
:1000800005900D92A834B107D9F721E0A8E4B1E0BA
:1000900001C01D92AE34B207E1F70E94C6020C9473
:1000A00077030C9400001F920F920FB60F92112449
:1000B0002F933F934F935F936F937F938F939F9370
:1000C000AF93BF93EF93FF93CF93DF9300D000D014
:1000D000CDB7DEB78091300190913101A09132010E
:1000E000B091330189839A83AB83BC8380914D01A6
:1000F0008F5F863018F480934D017BC010924D01C4
:1001000080914C018F5F8A3018F480934C0116C0A7
:1001100010924C0180914B018F5F8C3318F48093C7
:100120004B010CC010924B0180914A018F5F8C33C0
:1001300018F480934A0102C010924A0180914C0148
:100140004AE0BE016F5F7F4F90E00E94420360E093
:1001500087E00E94CA01CE0101960E94E6018091CB
:100160004B014AE0BE016F5F7F4F90E00E94420367
:1001700060E084E00E94CA0180914B018A3018F44B
:1001800080E30E94E301CE0101960E94E601809186
:100190004A014AE0BE016F5F7F4F90E00E94420338
:1001A00060E081E00E94CA0180914A018A3018F41F
:1001B00080E30E94E301CE0101960E94E601809156
:1001C0004B014AE0BE016F5F7F4F889FC001112441
:1001D0000E94420360E08BE00E94CA01CE010196BA
:1001E0000E94E60161E081E00E94CA0184E00E9471
:1001F000E3010F900F900F900F90DF91CF91FF913F
:10020000EF91BF91AF919F918F917F916F915F918E
:100210004F913F912F910F900FBE0F901F90189507
:100220001F920F920FB60F9211242F933F934F936B
:100230005F936F937F938F939F93AF93BF93CF936E
:10024000EF93FF9361E081E00E94CA01C0E08091DA
:100250004901C81728F485E00E94E301CF5FF7CF7A
:10026000809148010E94E301809148018F5F809353
:100270004801863098F0809149018F5F8093490151
:10028000109248018A3050F01092490161E081E0FB
:100290000E94CA018CE391E00E94E601FF91EF9178
:1002A000CF91BF91AF919F918F917F916F915F910E
:1002B0004F913F912F910F900FBE0F901F90189567
:1002C000299A85E08A95F1F7000029980895CF933F
:1002D000C82F662311F0289A01C02898549A559A7D
:1002E000569A579A5F985E985D985C98C7FD5F9A9A
:1002F000C6FD5E9AC5FD5D9AC4FD5C9A0E946001D0
:100300005F985E985D985C98C3FD5F9AC2FD5E9AA7
:10031000C1FD5D9AC0FD5C9A0E9460015C9A5D9A85
:100320005E9A5F9A87EB9BE00197F1F700C00000AF
:10033000CF91089528985D9A549855985698579853
:10034000299A85E08A95F1F700004C9B02C080E174
:1003500001C080E04D9980624E9980644F99806819
:10036000299895E09A95F1F70000299A95E09A95D9
:10037000F1F700004C9981604D9982604E9984603C
:100380004F9988602998089560E00C94670161E0B6
:100390000C946701611102C0805801C080540C9414
:1003A000C4010E949A0187FDFCCF85E18A95F1F78F
:1003B00000000E949A0190E0089581E00C94C4012D
:1003C00082E00C94C40161E00C946701CF93DF9349
:1003D000EC018991882319F00E94E301FACFDF91A3
:1003E000CF910895CF93DF93FC018491EF01219683
:1003F000882321F00E94E301FE01F7CFDF91CF9126
:100400000895CF93C82F209A559A219A549A559AB5
:10041000569A579A8FEF99EF0197F1F700C00000B5
:100420005D9A5C9A0E9460018FE19EE40197F1F76A
:1004300000C000000E9460018FEF90E00197F1F78B
:1004400000C000000E9460018FEF90E00197F1F77B
:1004500000C000005C980E9460018FEF90E001975F
:10046000F1F700C0000088E20E94C40188E00E9409
:10047000C4010E94DD0186E00E94C4018C2FCF914F
:100480000C94C401FC01408121E030E001C0220F46
:100490006A95EAF7242B20830895FC01808121E0EE
:1004A00030E001C0220F6A95EAF72095822380830D
:1004B00080818181282321830895FC01808121E0AE
:1004C00030E001C0220F6A95EAF7922F90958923B8
:1004D000808380818181282B21830895FC01908174
:1004E00021E030E001C0220F6A95EAF72095292328
:1004F00020830895FC01408121E030E001C0220FFB
:100500006A95EAF7242B20830895FC01408121E0BD
:1005100030E001C0220F6A95EAF72427208308956E
:10052000FC01808190E002C0959587956A95E2F77D
:1005300062E070E00E941A03089580937C0080912D
:100540007C00806480937C0080917C008F7D809310
:100550007C0080917A00876080937A0080917A0095
:10056000806880937A0080917A00806480937A001A
:1005700080917A0086FDFCCF2091780080917900EF
:1005800090E0982F8827820F911D08958CE00E949B
:10059000010260E081E00E94CA0184E391E00E94D0
:1005A000E60160E08BE00E94CA0181E60E94E3015F
:1005B00061E081E00E94CA0182E60E94E30161E0FD
:1005C0008BE00E94CA0183E60E94E30180E40E945E
:1005D000C40180E0E82E81E0F82E16E0C0E0D0E013
:1005E000F701EC0FFD1F80810E94C7012196C830E2
:1005F000D105B1F7115088E0E80EF11C1111EECFD2
:1006000080E80E94C4018091B10087608093B100AE
:100610008091700081608093700085B58D7F85BD6D
:1006200085B5856085BD80916E00816080936E0088
:100630007894FFCF97FB072E16F4009407D077FD30
:1006400009D00E942E0307FC05D03EF490958195B9
:100650009F4F0895709561957F4F0895AA1BBB1B0E
:1006600051E107C0AA1FBB1FA617B70710F0A61BB2
:10067000B70B881F991F5A95A9F780959095BC01D3
:10068000CD010895BB274A3031F4992322F4BDE20D
:10069000909581959F4F0C944E03BB27FB015527E6
:1006A000AA27880F991FAA1FA41710F0A41B8395CF
:1006B0005051B9F7A05DAA3308F0A95DA193009746
:1006C00079F7B111B1931192CB010C946703DC015E
:1006D000FC01672F71917723E1F7329704C07C9179
:1006E0006D9370836291AE17BF07C8F30895F894B5
:0206F000FFCF3A
:1006F2000000000000000000101010101010101078
:1007020018181818181818181C1C1C1C1C1C1C1C47
:100712001E1E1E1E1E1E1E1E1F1F1F1F1F1F1F1FEF
:100722002020000030303A30302E300020202020AF
:080732002020202020200000FF
:00000001FF
