:100000000C9434000C943E000C943E000C943E0082
:100010000C943E000C943E000C943E000C943E0068
:100020000C943E000C943E000C943E000C943E0058
:100030000C943E000C943E000C943E000C943E0048
:100040000C943E000C943E000C943E000C943E0038
:100050000C943E000C943E000C943E000C943E0028
:100060000C943E000C943E0011241FBECFEFD8E04C
:10007000DEBFCDBF0E9440000C9488000C940000AD
:10008000259A2D9850E280E090E023E030E0BC011A
:100090006170772745B1452745B94FEFE1EEF4E0B0
:1000A0004150E040F040E1F700C0000061157105EB
:1000B00049F04FEFE9E6F8E14150E040F040E1F768
:1000C00000C0000045B1452745B94FEFE9E6F8E12A
:1000D0004150E040F040E1F700C0000021503109FC
:1000E000C9F62FEF33ED40E3215030404040E1F7B7
:1000F00000C0000001968330910539F68FEF93ED33
:10010000E0E381509040E040E1F700C00000BBCF49
:04011000F894FFCF91
:00000001FF
