:100000000C9434000C9449000C9449000C94490061
:100010000C9449000C9449000C9449000C9449003C
:100020000C9449000C9449000C9449000C9449002C
:100030000C9449000C9449000C9449000C9449001C
:100040000C9449000C9449000C9449000C9449000C
:100050000C9449000C9449000C9449000C944900FC
:100060000C9449000C94490011241FBECFEFD8E036
:10007000DEBFCDBF11E0A0E0B1E0EAEBF0E002C0EE
:1000800005900D92A633B107D9F70E944B000C944E
:100090005B000C940000259A2D9890E22FEF30E73A
:1000A00082E0215030408040E1F700C0000085B17F
:0A00B000892785B9F3CFF894FFCF3C
:1000BA000103030200030203010302030101020315
:1000CA00030202020002030203030301080A0400F6
:1000DA0002060000070504030207060D02000101DB
:0600EA000103090B0C00EC
:00000001FF
