:100000000C9434000C943E000C943E000C943E0082
:100010000C943E000C943E000C943E000C943E0068
:100020000C943E000C943E000C943E000C943E0058
:100030000C943E000C943E000C943E000C943E0048
:100040000C943E000C943E000C943E000C943E0038
:100050000C943E000C943E000C943E000C943E0028
:100060000C943E000C943E0011241FBECFEFD8E04C
:10007000DEBFCDBF0E9469000C94A4000C94000068
:1000800080937C0080917C00806480937C008091D0
:100090007C008F7D80937C0080917A0087608093C4
:1000A0007A0080917A00806880937A0080917A004B
:1000B000806480937A0080917A0086FDFCCF209145
:1000C00078008091790090E0982F8827820F911D09
:1000D000089595E080E0880F8F5F9150E1F797B128
:1000E000982B97B998B18095892388B9439A5098ED
:1000F000589AC0E2D1E085E00E94400024E0969545
:1001000087952A95E1F720E030E02817390749F074
:10011000EFE3FCE93197F1F700C000002F5F3F4F9C
:10012000F4CF489908C088B1803211F4D8B9E3CF30
:1001300088B1880F07C088B1813011F4C8B9DBCF0E
:0C01400088B1869588B9D7CFF894FFCF1E
:00000001FF
